:020000040800F2
:10000000680600206D0100087501000877010008EE
:10001000790100087B0100087D0100080000000054
:100020000000000000000000000000007F01000848
:10003000810100080000000083010008850100081C
:100040008701000887010008870100088701000870
:100050008701000887010008870100088701000860
:100060008701000887010008870100088701000850
:100070008701000887010008870100088701000840
:100080008701000887010008870100088701000830
:100090008701000887010008870100088701000820
:1000A0008701000887010008870100088701000810
:1000B000D1040008870100088701000887010008B3
:1000C00087010008870100088701000887010008F0
:1000D00087010008870100088701000887010008E0
:1000E00087010008870100088701000800F002F876
:1000F00000F02CF80AA090E8000C82448344AAF196
:100100000107DA4501D100F021F8AFF2090EBAE893
:100110000F0013F0010F18BFFB1A43F0010318473B
:1001200018090000280900000023002400250026EB
:10013000103A28BF78C1FBD8520728BF30C148BF4A
:100140000B6070471FB51FBD10B510BD00F031F832
:100150001146FFF7F7FF00F045FA00F04FF803B43F
:10016000FFF7F2FF03BC00F057F800000948804792
:1001700009480047FEE7FEE7FEE7FEE7FEE7FEE789
:10018000FEE7FEE7FEE7FEE704480549054A064BA1
:100190007047000079030008ED00000868000020A7
:1001A000680600206802002068020020704770473F
:1001B0007047754600F02CF8AE4605006946534678
:1001C00020F00700854618B020B5FFF7DDFFBDE839
:1001D00020404FF000064FF000074FF000084FF0AE
:1001E000000BAC46ACE8C009ACE8C009ACE8C009FB
:1001F000ACE8C00921F007018D46704710B50446F0
:10020000AFF300802046BDE81040FFF7A8BF000014
:10021000004870470000002001491820ABBEFEE7EF
:1002200026000200704700002DE9F047CA7802F06E
:100230000F0CD30644BF8B784CEA030C09880B06DD
:1002400025D082465AF8144B00F1100E00254FF0CD
:1002500001094FF00F08002706E000BF1E600137BC
:10026000082F05F1040511D009FA07F60E42F6D061
:1002700008FA05F324EA03030CFA05F41C43282AC0
:100280005346EBD0482AEAD17346E7E70460B1F55C
:10029000807F38BFBDE8F087436800F1100E00F1A1
:1002A000140900254FF4807A4FF00F08002705E06D
:1002B00034600137082F05F1040512D00AFA07F45B
:1002C00004EA0106A642F4D108FA05F6B3430CFA93
:1002D00005F63343282A4E46EAD0482AE9D1764625
:1002E000E6E74360BDE8F08710B5C17800294EF21B
:1002F0000011CEF200011AD04EF60C52CEF20002DE
:100300001268072323EA12220F23C2F1040C23FAF6
:1003100002F24378847890F800E003FA0CF322406C
:100320001A43120101EB0E0383F8002300E0803131
:100330000078012300F01F0203FA02F2C0F342101A
:1003400041F8202010BD0000002941F21C01C4F238
:1003500002010A680CBF22EA0000104308607047DF
:10036000002941F21801C4F202010A680CBF22EA16
:10037000000010430860704782B041F20400C4F2EC
:10038000020050F8041C002241F0010140F8041C56
:100390000168CFF6FF021140016050F8041C4FF6CF
:1003A000FF72CFF6F662114040F8041C50F8041CAE
:1003B00021F4802140F8041C016821F4FE01016051
:1003C0004FF41F01416000210191009150F8041C7D
:1003D00041F4803140F8041C50F8041C01F4003151
:1003E0000091019901310191009919B90199B1F573
:1003F000A06FF1D150F8041C890354BF00210121E2
:1004000000910099012936D142F20001C4F20201A3
:100410000A6842F010020A600A6822F007020A60C5
:100420000A6842F002020A60016801600168016026
:10043000016841F480610160016821F47C11016070
:10044000016841F4E811016050F8041C41F080712A
:1004500040F8041C50F8041C8901FBD5016821F008
:1004600003010160016841F002010160016801F0CF
:100470000C010829FAD14EF60850CEF200004FF0D8
:100480000061016002B0704780B584B00120012195
:10049000FFF75AFF4720019040F2E730029001A990
:1004A0004FF0804000F048F84FF0804001210122D9
:1004B00000F03AF84FF08040012100F01FF81C20B6
:1004C000C0F2001000906846FFF70EFF04B080BD38
:1004D00080B54FF08040012100F01AF8002808BFD5
:1004E00080BD00F097FA4FF080400121BDE88040C8
:1004F000AFF30080C94301827047000002880029E1
:1005000018BF012122F00102114401807047000050
:10051000028A80890A4000EA010018BF01220028EF
:1005200018BF012010407047002A82890CBF22EAC0
:10053000010111438181704740F6FF33B0F800C0DC
:10054000C4F2000398420FDCB0F1804F1ED040F29D
:100550000043C4F20003984218D040F60003C4F2EE
:100560000003984212D016E040F60043C4F20003A4
:1005700098420BD043F20043C4F20103984205D0E5
:1005800042F60043C4F20103984204D14B882CF098
:10059000700243EA020C41F2004240F48063C4F26C
:1005A0000002934204D0CA882CF4407342EA030C40
:1005B000A0F800C08A888285A0F18042A2F5963218
:1005C0000B884FEAB222072A038507D8012303FAD2
:1005D00002F212F0E50F1CBF097A01860121818227
:1005E0007047000041F20C042D201021C4F20104D8
:1005F00000F01AF81C20102100F016F84FF47A7061
:1006000000F0FCF9FFF740FF40F26405C2F200057C
:1006100028680128FCD14FF4FA7000F0EFF9206847
:1006200080F400502060F3E7B0B582B00D46044678
:1006300010200121FFF794FE02202F2C8DF8075087
:100640008DF8060000F2C981DFE814F030003800B0
:1006500040004800500058006000680070007900B9
:1006600082008B0094009D00A600AF00B800C0007F
:10067000C800D000D800E000E800F000F800010158
:100680000A0113011C0125012E0137014001480117
:1006900050015801600168017001780180018901F1
:1006A00092019B01A401AD01B601BF01042001210B
:1006B0000124FFF755FEADF804408EE1042001212E
:1006C000FFF74EFE0220ADF8040086E10420012170
:1006D0000424FFF745FEADF804407EE1042001212B
:1006E000FFF73EFE0820ADF8040076E1042001216A
:1006F000FFF736FE1020ADF804006EE10420012162
:10070000FFF72EFE2020ADF8040066E10420012151
:10071000FFF726FE4020ADF804005EE10420012131
:10072000FFF71EFE8020ADF8040056E104200121F1
:10073000FFF716FE4FF48070ADF804004DE1042081
:100740000121FFF70DFE4FF40070ADF8040044E105
:1007500004200121FFF704FE4FF48060ADF804008F
:100760003BE104200121FFF7FBFD4FF40060ADF8F1
:10077000040032E104200121FFF7F2FD4FF4805024
:10078000ADF8040029E104200121FFF7E9FD4FF451
:100790000050ADF8040020E104200121FFF7E0FD46
:1007A0004FF48040ADF8040017E104200121FFF769
:1007B000D7FD4FF40040ADF804000EE10820012100
:1007C0000124FFF7CDFDADF8044006E1082001212A
:1007D000FFF7C6FD0220ADF80400FEE0082001216D
:1007E000FFF7BEFD0420ADF80400F6E0082001216B
:1007F0000824FFF7B5FDADF80440EEE00820012124
:10080000FFF7AEFD1020ADF80400E6E0082001215E
:10081000FFF7A6FD2020ADF80400DEE0082001214E
:10082000FFF79EFD4020ADF80400D6E0082001212E
:10083000FFF796FD8020ADF80400CEE008200121EE
:10084000FFF78EFD4FF48070ADF80400C5E008207E
:100850000121FFF785FD4FF40070ADF80400BCE006
:1008600008200121FFF77CFD4FF48060ADF8040003
:10087000B3E008200121FFF773FD4FF40060ADF8ED
:100880000400AAE008200121FFF76AFD4FF4805020
:10089000ADF80400A1E008200121FFF761FD4FF44D
:1008A0000050ADF8040098E008200121FFF758FD42
:1008B0004FF48040ADF804008FE008200121FFF7DD
:1008C0004FFD4FF40040ADF8040086E010200121F8
:1008D0000124FFF745FDADF804407EE01020012122
:1008E000FFF73EFD0220ADF8040076E01020012164
:1008F000FFF736FD0420ADF804006EE01020012162
:10090000FFF72EFD0820ADF8040066E0102001215D
:100910001024FFF725FDADF804405EE01020012112
:10092000FFF71EFD2020ADF8040056E01020012145
:10093000FFF716FD4020ADF804004EE01020012125
:10094000FFF70EFD8020ADF8040046E010200121E5
:10095000FFF706FD4FF48070ADF804003DE0102075
:100960000121FFF7FDFC4FF40070ADF8040034E006
:1009700010200121FFF7F4FC4FF48060ADF8040073
:100980002BE010200121FFF7EBFC4FF40060ADF8E5
:10099000040022E010200121FFF7E2FC4FF4805018
:1009A000ADF8040019E010200121FFF7D9FC4FF445
:1009B0000050ADF8040010E010200121FFF7D0FC3A
:1009C0004FF48040ADF8040007E010200121FFF74C
:1009D000C7FC4FF40040ADF8040040F60044C4F2F8
:1009E000010401AD20462946FFF71EFC04F5806096
:1009F0002946FFF719FC02B0B0BD000040F26001CB
:100A0000C2F20001086040F26400C2F2000000215E
:100A10000160704740F26000C2F2000001680129E5
:100A200009DB0139016018BF704740F26400C2F26F
:100A30000000012101607047480A00080000002002
:080A400068060000280100080F
:040000050800016D81
:00000001FF
